:020000020000FC
:100400009FEF3AD139D138D137D10FEF04B900E09D
:1004100005B91DD008950FEF0AB929982A9A002727
:1004200021E0020F00000F3FE1F72A98089500E055
:100430000BB90AB90027299A2A9A00000000000087
:100440002A9829980BB10000000000000895289810
:100450002B9AEDDF000FE0F32B980895F8DF0FE003
:100460000BB9D9DF0895F3DF0FE00BB9D4DF08959E
:10047000EEDF0CE30BB9CFDF0895E9DF01E00BB944
:10048000CADF9FEF0E9428030895E1DF02E00BB965
:10049000C2DF9FEF0E9428030895D9DFFF91EF91FB
:1004A0003F914FEF289A0F910BB9B5DF340FD9F771
:0804B0002898EF93FF930895D3
:0400380098941895EB
:1006000080E08093440082E38093450082E0809301
:100610006E009093470080E0809346001894789491
:100620000000F1F3F894089580E08093440083E3A0
:100630008093450082E080936E009093470080E0B5
:1006400080934600189478940000F1F3F89408958C
:1006500080E08093440084E38093450082E08093AF
:100660006E009093470080E0809346001894789441
:100670000000F1F3F894089580E08093440084E34F
:100680008093450082E080936E009093470080E065
:1006900080934600189478940000F1F3F89408953C
:0206A000AFCDDC
:10020000FFD036D12BD139D140D104E60F930CE683
:100210000F9302E70F930FE60F9307E50F9300E2AA
:100220000F930FE60F930CE60F930CE60F9305E682
:100230000F9308E40F930BE00F930E944D022D9A49
:02024000FECFEF
:00000001FF
